:1000000081C000009BC0000099C0000097C00000A4
:1000100095C0000093C0000091C000008FC0000098
:100020008DC000008BC0000089C00000A7C3000085
:1000300085C0000083C0000081C000007FC00000B8
:100040007DC000007BC0000079C0000077C00000C8
:1000500075C0000073C0000071C000006FC00000D8
:100060006DC000006BC0000069C0000067C00000E8
:1000700065C000001201000200000020EB03132005
:10008000001001020001090229000101008032096B
:1000900004000001030000000921110100012223D6
:1000A0000007058103090001000000000000000CAA
:1000B00003410054004D0045004C0022034100560E
:1000C0000052002000550053004200200048004923
:1000D0000044002000440045004D004F0004030987
:1000E00004050C0901A101050C15002501750195F8
:1000F0000809E909EA096F0970097209000900098C
:10010000008102C011241FBECFEFD2E0DEBFCDBF01
:1001100081E011E0A0E0B1E0E8E4FFE002C005907A
:100120000D92A230B107D9F711E0A2E0B1E001C011
:100130001D92A931B107E1F7FAD604C761CF8FB795
:10014000F89497EF94BF98E10FB6F89490936000FD
:10015000109260000FBE87FF01C078940895982F19
:100160003FB7F89487EF84BF93FD02C028E001C039
:1001700028E29770292B88E190E00FB6F894A895B3
:10018000809360000FBE2093600037FF01C0789419
:1001900008958091190190911A01A0911B01B091CD
:1001A0001C0185559A4AAA4AB54569F4109219016D
:1001B00010921A0110921B0110921C01E091000193
:1001C000F09101010995089585E59AEAAAEAB5E555
:1001D0008093190190931A01A0931B01B0931C0105
:1001E00085E0BDDFFFCF9091EB0091609093EB0035
:1001F0008093EC008091ED008270862B8093ED005F
:100200008091ED0082608093ED008091EE00881F68
:100210008827881F08951092E9008091EB0080FFE5
:1002200002C080E008951092E90082E060E2DBCF36
:10023000ABD362D4FDCFAAD3ABC3FDDFF9CFE8EDDA
:10024000F0E080818F77808380818068808308954B
:100250008091D80080628093D80082E089BD09B483
:1002600000FEFDCFF8948091D8008F7D8093D80058
:100270008091E0008E7F8093E0008091E0008B7F92
:100280008093E000C8DF8091E20081608093E2000B
:100290008091E20088608093E200789408958091D4
:1002A0000201882321F481E080930201D1DF809153
:1002B00006019091070190FF10C080910601909176
:1002C00007019E7F909307018093060181E0809350
:1002D000EA001092EA00109213011092E900809156
:1002E000E80083FF01C001C008950F931F93DF93BF
:1002F000CF9300D0CDB7DEB78091E8008B7F80939D
:10030000E8001091F1000091F1000630F9F007309B
:1003100068F4013009F413C1013008F480C10330DE
:1003200009F441C1053009F0F5C1D2C0093009F422
:10033000EFC00A3020F4083009F0ECC1A4C00A3044
:1003400009F4A3C10B3009F0E5C1C2C1103809F0AE
:10035000E1C16091F1008091F100813019F08230AB
:1003600089F406C082E18093140184E790E005C01F
:1003700089E28093140186E890E0909316018093BF
:10038000150104C0E8D3882309F4C4C18091F100A9
:100390008091F1008091F10089838091F1008A833E
:1003A0008091E800877F8093E80029813A818091DD
:1003B000140190E08217930730F48F719070892BAD
:1003C00021F461E003C02093140160E08091E80013
:1003D0008F7E8093E80020911501309116014091A5
:1003E000140122C08091E80084FF03C0F90190E06D
:1003F0000FC08091E80080FFF5CFF8CF542F515007
:10040000903249F09F5F84918093F1003196452F9F
:100410009F01442399F78091E80084FD12C08091E8
:10042000E8008E7F8093E800442339F4209315017F
:1004300030931601109214010AC08091E80084FFE5
:10044000D8CF2093150130931601409314016130E9
:1004500069F48091E80084FD09C08091E80080FF84
:10046000FCCF8091E8008E7F8093E8008091E800C7
:1004700084FFFCCF8091E8008F7E8093E80080911C
:10048000E8008B7F22C0103809F044C18091E80059
:10049000877F8093E800809113018093F100809121
:1004A000E8008E7F8093E8008091E8008F7780934A
:1004B000E8008091E80082FFFCCF8091E8008B7F0C
:1004C0008093E8008091E8008F778093E80034C142
:1004D000112309F01FC19091F1008091E3009F77F3
:1004E0008078982B9093E3008091E800877F809339
:1004F000E8008091E8008E7F8093E8008091E8001A
:1005000080FFFCCF8091E30080688093E30014C1FA
:10051000112309F0FFC09091F100923008F0FAC069
:100520008091E800877F8093E80090931301809189
:10053000E8008E7F8093E800892FE6D4FDC0112368
:10054000C1F1123009F0E6C08091F1009091F10004
:10055000882309F0DFC0E091F100EF77E093E90034
:100560008091EB0080FF43C0EE23B1F08091EB005F
:1005700080618093EB0081E090E00E2E02C0880F36
:10058000991F0A94E2F78093EA001092EA008091A2
:10059000EB0088608093EB001092E900F0E0E45FEC
:1005A000FE4F108233C0112321F0123009F0B2C087
:1005B00003C08091F100AEC08091F1009091F100F4
:1005C000882309F0A7C0E091F100EF7751F4809102
:1005D000EB0080628093EB008091E800877F80933E
:1005E000E800E093E9008091EB0080FD03C01092E9
:1005F000E90090C08091EB0080628093EB00109244
:10060000E900F0E0E45FFE4F81E080838091E80044
:10061000877F8093E8008091E8008E7F56CF80919D
:10062000F1008091F100E091F100113869F0123889
:1006300099F0103809F06EC08091E800877F8093B0
:10064000E8008091050113C08091E800877F8093C6
:10065000E8001092F1000DC08091E800877F809340
:10066000E800F0E0EF77F070E45FFE4F8081809368
:10067000F1001092F1008091E8008E7F8093E800F5
:100680008091E80082FFFCCF18CF113809F042C0FA
:100690008091F1008091F1009091F1009983909107
:1006A000F1009A838823B1F58091E800877F8093D9
:1006B000E80089819A8127D28093F1008091E80037
:1006C0008E7F8093E8008091E80082FFFCCFF5CE1A
:1006D000113001F56091F1008091F1009091F100ED
:1006E00099839091F1009A838823A1F48091E80086
:1006F000877F8093E80089819A8107D21092E90070
:100700008091E8008E7F8093E8008091E80080FF70
:10071000FCCF12C0812F602FC8D3882369F4809149
:10072000EB0080628093EB008091E800877F8093EC
:10073000E80081E080930C010F900F90CF91DF9142
:100740001F910F910895282F16C010921801109232
:10075000170109C08091170190911801019690939B
:100760001801809317018091170190911801845FFF
:10077000914080F32150222341F708951F920F9258
:100780000FB60F9211242F933F934F935F936F9364
:100790007F938F939F93AF93BF93EF93FF9380913A
:1007A000E10082FF08C08091E20082FF04C08BEF6D
:1007B0008093E1002ED18091E10080FF29C08091DB
:1007C000E20080FF25C081E0809303018FEE8093DB
:1007D000E1008091060190910701806290930701EA
:1007E000809306018EEF8093E1008091E2008061AA
:1007F0008093E2008091E2008F7D8093E2008091FF
:10080000D80080628093D80089B58D7F89BD19BCDE
:100810008091E10084FF72C08091E20084FF6EC08D
:1008200009B400FC05C082E089BD09B400FEFDCF1B
:100830008091D8008F7D8093D8008FEE8093E10067
:1008400080910301882309F459C08091E2008062FD
:100850008093E2008091E20088608093E2009FEE46
:1008600002C09093E1008091E10084FDFACF82E024
:100870006ADF8091E10082FD08C08091E10085FD82
:1008800004C08091E10083FF1CC08091E2008F7E54
:100890008093E2008091060190910701806490931B
:1008A0000701809306018091E20081608093E2005D
:1008B0008091E20080628093E2008091E200886093
:1008C0001BC08091E10084FD4EC08091FB008F7DB4
:1008D0008093FB008091FB0080688093FB008091F7
:1008E000FB008F7B8093FB008091FB008F738093D4
:1008F000FB008091E2008F7E8093E2008091E10016
:1009000085FF1CC08091E20085FF18C01092030192
:100910008091E2008F7E8093E2008FED8093E10072
:100920008091E2008F7D8093E2008091060190919A
:100930000701806890930701809306018091E10090
:1009400083FF11C08091E20083FF0DC087EF809389
:10095000E10061DC80910601909107019160909324
:10096000070180930601FF91EF91BF91AF919F9195
:100970008F917F916F915F914F913F912F910F9048
:100980000FBE0F901F9018958ACC089558CC0895EB
:1009900084B1836384B985B18C7C85B98AB1807E4A
:1009A0008AB98BB18F618BB985B18C7C85B985B1E2
:1009B00085B9089581E08093E9008091E80085FF82
:1009C00027C0489902C091E011C0499902C092E045
:1009D0000DC04A9902C094E009C04B9902C098E04A
:1009E00005C04C9902C090E101C090E080910901DE
:1009F000981771F0909309019093F1008091E800AD
:100A00008E7F8093E8008091E8008F778093E800E4
:100A10000895809108018F5F809308010895DF9306
:100A2000CF9300D000D0CDB7DEB782E08093E9004D
:100A30008091E80082FF33C09091F1009F70809117
:100A4000F1008F70823081F0833018F48130E9F446
:100A500005C0833079F08430C1F412C0992311F0BD
:100A6000289A13C0289811C0992311F0299A0DC013
:100A700029980BC0992311F02C9A07C02C9805C017
:100A8000992311F02D9A01C02D988091E8008B7F59
:100A90008093E8008091E8008F778093E800809150
:100AA0000A01882311F185B18C7C85B98091E00021
:100AB00081608093E00019821A821B821C820BC025
:100AC00089819A81AB81BC810196A11DB11D898369
:100AD0009A83AB83BC8389819A81AB81BC81805727
:100AE0009141A140B04060F36FDB0F900F900F90E9
:100AF0000F90CF91DF91089580911301882311F019
:100B00008EDF58CF089580E00895892B19F581E094
:100B10008093E9008091EB0080618093EB0092E08C
:100B20009093EA001092EA008091EB008860809335
:100B3000EB009093E9008091EB0080618093EB00E3
:100B400084E08093EA001092EA008091EB008860D4
:100B50008093EB0008958330F1F4613059F06130F7
:100B600018F06230C1F40CC084E0809314018DED64
:100B700090E00BC08CE0809314018FEA90E005C0F8
:100B800082E2809314018BEB90E0909316018093A6
:100B9000150181E0089580E00895DF93CF9300D0A0
:100BA00000D0CDB7DEB78091F1008B838091F1004A
:100BB0008C8383E28093140181EE90E09093160180
:100BC000809315018091F10089838091F1008A83DF
:100BD0008091E800877F8093E80089819A81843240
:100BE000910528F04091140121EE30E01CC0809363
:100BF0001401F8CF8091E80080FFFCCFF90190E06C
:100C00000AC0542F5150903249F09F5F84918093D5
:100C1000F1003196452F9F01442399F78091E80018
:100C20008E7F8093E800442359F08091E80082FF92
:100C3000E1CF30931601209315014093140106C0B3
:100C40003093160120931501109214018091E80051
:100C500082FFFCCF8091E8008B7F8093E800809139
:100C6000E8008F778093E8000F900F900F900F901F
:100C7000CF91DF9108958091E800877F8093E8000D
:100C80008091E8008E7F8093E8008091E80082FFE9
:100C9000FCCF8091E8008B7F8093E8008091E80092
:100CA0008F778093E8008091E8008E7F8093E80042
:100CB0000895DF93CF9300D0CDB7DEB78091F100D8
:100CC00089838091F1008A838091E800877F8093F7
:100CD000E80060930B018091E8008E7F8093E8002C
:100CE0008091E80080FFFCCF0F900F90CF91DF91B3
:100CF0000895DF93CF9300D000D0CDB7DEB78091B9
:100D0000F1008B838091F1008C838091F1008983C5
:100D10008091F1008A838091E800877F8093E800CA
:100D200089819A81892B49F080910B018093F10090
:100D30008091E8008E7F8093E8008091E80082FF38
:100D4000FCCF8091E8008B7F8093E8008091E800E1
:100D50008F778093E8000F900F900F900F90CF91B6
:100D6000DF9108958091E800877F8093E80080916B
:100D7000E8008E7F8093E8008091E80082FFFCCF3E
:100D80008091F100853579F48091F1008A3A59F427
:100D90008091F100853539F48091F1008A3A19F497
:100DA00081E080930A018091E8008B7F8093E800C6
:100DB0008091E8008F778093E8008091E8008E7F33
:100DC0008093E8008091E80080FFFCCF0895DF93D6
:100DD000CF9300D000D0CDB7DEB78091F1008B83E8
:100DE0008091F1008C8389E08093140188E990E080
:100DF00090931601809315018091F1008983809171
:100E0000F1008A838091E800877F8093E8008981E0
:100E10009A818A30910528F04091140128E930E048
:100E20001CC080931401F8CF8091E80080FFFCCFB4
:100E3000F90190E00AC0542F5150903249F09F5F61
:100E400084918093F1003196452F9F01442399F7B7
:100E50008091E8008E7F8093E800442359F08091D0
:100E6000E80082FFE1CF30931601209315014093F3
:100E7000140106C03093160120931501109214013D
:100E80008091E80082FFFCCF8091E8008B7F809307
:100E9000E8008091E8008F778093E8000F900F9032
:100EA0000F900F90CF91DF9108952091F1009091D4
:100EB000F100813859F4663029F5913219F09232F7
:100EC00009F502C084DF1CC068DE1AC0813291F4CB
:100ED000693019F06A30B1F409C0923019F09330DA
:100EE00089F402C0C8DE0CC03DDF0AC0822F692F22
:100EF000E0DE06C0813A31F4623021F4822FF9DE5F
:100F000081E0089580E008950F931F9309EE10E0AB
:100F100081E0F801808381EC60E065D982E0F8012E
:100F2000808380EC60E05FD91F910F910895E3E624
:100F3000F0E080818E7F808302D92BD97ED980E03A
:080F400090E00895F894FFCF42
:020F480000188F
:00000001FF
